{
  "contractName": "UserCrud2",
  "abi": [
    {
      "inputs": [],
      "stateMutability": "nonpayable",
      "type": "constructor"
    },
    {
      "anonymous": false,
      "inputs": [
        {
          "indexed": false,
          "internalType": "uint8",
          "name": "version",
          "type": "uint8"
        }
      ],
      "name": "Initialized",
      "type": "event"
    },
    {
      "anonymous": false,
      "inputs": [
        {
          "indexed": false,
          "internalType": "uint256",
          "name": "",
          "type": "uint256"
        },
        {
          "indexed": false,
          "internalType": "string",
          "name": "",
          "type": "string"
        }
      ],
      "name": "UserCreate",
      "type": "event"
    },
    {
      "anonymous": false,
      "inputs": [
        {
          "indexed": false,
          "internalType": "uint256",
          "name": "",
          "type": "uint256"
        },
        {
          "indexed": false,
          "internalType": "string",
          "name": "",
          "type": "string"
        }
      ],
      "name": "UserUpgrated",
      "type": "event"
    },
    {
      "inputs": [
        {
          "internalType": "address",
          "name": "_admin",
          "type": "address"
        }
      ],
      "name": "initialize",
      "outputs": [],
      "stateMutability": "nonpayable",
      "type": "function"
    },
    {
      "inputs": [
        {
          "internalType": "string",
          "name": "_name",
          "type": "string"
        },
        {
          "internalType": "string",
          "name": "_gmail",
          "type": "string"
        }
      ],
      "name": "createUser",
      "outputs": [],
      "stateMutability": "nonpayable",
      "type": "function"
    },
    {
      "inputs": [
        {
          "internalType": "uint256",
          "name": "_id",
          "type": "uint256"
        },
        {
          "internalType": "string",
          "name": "newname",
          "type": "string"
        }
      ],
      "name": "upgrateUser",
      "outputs": [],
      "stateMutability": "nonpayable",
      "type": "function"
    },
    {
      "inputs": [
        {
          "internalType": "uint256",
          "name": "_id",
          "type": "uint256"
        }
      ],
      "name": "seeUser",
      "outputs": [
        {
          "components": [
            {
              "internalType": "uint256",
              "name": "id",
              "type": "uint256"
            },
            {
              "internalType": "string",
              "name": "name",
              "type": "string"
            },
            {
              "internalType": "string",
              "name": "gmail",
              "type": "string"
            }
          ],
          "internalType": "struct UserCrud2.Users",
          "name": "",
          "type": "tuple"
        }
      ],
      "stateMutability": "view",
      "type": "function",
      "constant": true
    },
    {
      "inputs": [],
      "name": "listUser",
      "outputs": [
        {
          "internalType": "uint256[]",
          "name": "",
          "type": "uint256[]"
        },
        {
          "internalType": "string[]",
          "name": "",
          "type": "string[]"
        },
        {
          "internalType": "string[]",
          "name": "",
          "type": "string[]"
        }
      ],
      "stateMutability": "view",
      "type": "function",
      "constant": true
    },
    {
      "inputs": [
        {
          "internalType": "uint256",
          "name": "_id",
          "type": "uint256"
        }
      ],
      "name": "deleteUser",
      "outputs": [],
      "stateMutability": "nonpayable",
      "type": "function"
    }
  ],
  "bytecode": "0x60806040523480156200001157600080fd5b50620000226200002860201b60201c565b620001d3565b600060019054906101000a900460ff16156200007b576040517f08c379a0000000000000000000000000000000000000000000000000000000008152600401620000729062000176565b60405180910390fd5b60ff801660008054906101000a900460ff1660ff161015620000ed5760ff6000806101000a81548160ff021916908360ff1602179055507f7f26b83ff96e1f2b6a682f133852f6798a09c465da95921460cefb384740249860ff604051620000e49190620001b6565b60405180910390a15b565b600082825260208201905092915050565b7f496e697469616c697a61626c653a20636f6e747261637420697320696e69746960008201527f616c697a696e6700000000000000000000000000000000000000000000000000602082015250565b60006200015e602783620000ef565b91506200016b8262000100565b604082019050919050565b6000602082019050818103600083015262000191816200014f565b9050919050565b600060ff82169050919050565b620001b08162000198565b82525050565b6000602082019050620001cd6000830184620001a5565b92915050565b61189180620001e36000396000f3fe608060405234801561001057600080fd5b50600436106100625760003560e01c806338f14845146100675780634d3535641461008357806368fb448c1461009f57806387b162b5146100cf578063c4d66de8146100eb578063ed815f6214610107575b600080fd5b610081600480360381019061007c9190610bfe565b610127565b005b61009d60048036038101906100989190610d71565b6101c3565b005b6100b960048036038101906100b49190610bfe565b610265565b6040516100c69190610eb2565b60405180910390f35b6100e960048036038101906100e49190610ed4565b6103ce565b005b61010560048036038101906101009190610faa565b6105e6565b005b61010f61075e565b60405161011e93929190611148565b60405180910390f35b600061013282610a75565b9050600460008281526020019081526020016000206000808201600090556001820160006101609190610b36565b6002820160006101709190610b36565b50506003818154811061018657610185611194565b5b90600052602060002090600302016000808201600090556001820160006101ad9190610b36565b6002820160006101bd9190610b36565b50505050565b60006101ce83610a75565b905081600382815481106101e5576101e4611194565b5b9060005260206000209060030201600101908161020291906113cf565b508160046000838152602001908152602001600020600101908161022691906113cf565b507f3b50fb2dd4164931b06f28a69b1e1c772d02461cc68718954906d2591cdf4cc883836040516102589291906114fa565b60405180910390a1505050565b61026d610b76565b600061027883610a75565b905060046000828152602001908152602001600020604051806060016040529081600082015481526020016001820180546102b2906111f2565b80601f01602080910402602001604051908101604052809291908181526020018280546102de906111f2565b801561032b5780601f106103005761010080835404028352916020019161032b565b820191906000526020600020905b81548152906001019060200180831161030e57829003601f168201915b50505050508152602001600282018054610344906111f2565b80601f0160208091040260200160405190810160405280929190818152602001828054610370906111f2565b80156103bd5780601f10610392576101008083540402835291602001916103bd565b820191906000526020600020905b8154815290600101906020018083116103a057829003601f168201915b505050505081525050915050919050565b60005b6003805490508110156104a357600381815481106103f2576103f1611194565b5b906000526020600020906003020160020160405160200161041391906115b8565b604051602081830303815290604052805190602001208260405160200161043a9190611600565b6040516020818303038152906040528051906020012003610490576040517f08c379a000000000000000000000000000000000000000000000000000000000815260040161048790611663565b60405180910390fd5b808061049b906116b2565b9150506103d1565b5060036040518060600160405280600154815260200184815260200183815250908060018154018082558091505060019003906000526020600020906003020160009091909190915060008201518160000155602082015181600101908161050b91906113cf565b50604082015181600201908161052191906113cf565b505050604051806060016040528060015481526020018381526020018281525060046000600154815260200190815260200160002060008201518160000155602082015181600101908161057591906113cf565b50604082015181600201908161058b91906113cf565b509050507fffa30f4b444507accfe90062280376fb44908534b554b0933b320f8713513488600154836040516105c29291906114fa565b60405180910390a1600160008154809291906105dd906116b2565b91905055505050565b60008060019054906101000a900460ff161590508080156106175750600160008054906101000a900460ff1660ff16105b80610644575061062630610b13565b1580156106435750600160008054906101000a900460ff1660ff16145b5b610683576040517f08c379a000000000000000000000000000000000000000000000000000000000815260040161067a9061176c565b60405180910390fd5b60016000806101000a81548160ff021916908360ff16021790555080156106c0576001600060016101000a81548160ff0219169083151502179055505b81600260006101000a81548173ffffffffffffffffffffffffffffffffffffffff021916908373ffffffffffffffffffffffffffffffffffffffff160217905550801561075a5760008060016101000a81548160ff0219169083151502179055507f7f26b83ff96e1f2b6a682f133852f6798a09c465da95921460cefb3847402498600160405161075191906117d4565b60405180910390a15b5050565b6060806060600060038054905067ffffffffffffffff81111561078457610783610c46565b5b6040519080825280602002602001820160405280156107b25781602001602082028036833780820191505090505b509050600060038054905067ffffffffffffffff8111156107d6576107d5610c46565b5b60405190808252806020026020018201604052801561080957816020015b60608152602001906001900390816107f45790505b509050600060038054905067ffffffffffffffff81111561082d5761082c610c46565b5b60405190808252806020026020018201604052801561086057816020015b606081526020019060019003908161084b5790505b50905060005b600380549050811015610a63576003818154811061088757610886611194565b5b9060005260206000209060030201600001548482815181106108ac576108ab611194565b5b602002602001018181525050600381815481106108cc576108cb611194565b5b906000526020600020906003020160010180546108e8906111f2565b80601f0160208091040260200160405190810160405280929190818152602001828054610914906111f2565b80156109615780601f1061093657610100808354040283529160200191610961565b820191906000526020600020905b81548152906001019060200180831161094457829003601f168201915b505050505083828151811061097957610978611194565b5b60200260200101819052506003818154811061099857610997611194565b5b906000526020600020906003020160020180546109b4906111f2565b80601f01602080910402602001604051908101604052809291908181526020018280546109e0906111f2565b8015610a2d5780601f10610a0257610100808354040283529160200191610a2d565b820191906000526020600020905b815481529060010190602001808311610a1057829003601f168201915b5050505050828281518110610a4557610a44611194565b5b60200260200101819052508080610a5b906116b2565b915050610866565b50828282955095509550505050909192565b600080600090505b600380549050811015610ad2578260038281548110610a9f57610a9e611194565b5b90600052602060002090600302016000015403610abf5780915050610b0e565b8080610aca906116b2565b915050610a7d565b506040517f08c379a0000000000000000000000000000000000000000000000000000000008152600401610b059061183b565b60405180910390fd5b919050565b6000808273ffffffffffffffffffffffffffffffffffffffff163b119050919050565b508054610b42906111f2565b6000825580601f10610b545750610b73565b601f016020900490600052602060002090810190610b729190610b97565b5b50565b60405180606001604052806000815260200160608152602001606081525090565b5b80821115610bb0576000816000905550600101610b98565b5090565b6000604051905090565b600080fd5b600080fd5b6000819050919050565b610bdb81610bc8565b8114610be657600080fd5b50565b600081359050610bf881610bd2565b92915050565b600060208284031215610c1457610c13610bbe565b5b6000610c2284828501610be9565b91505092915050565b600080fd5b600080fd5b6000601f19601f8301169050919050565b7f4e487b7100000000000000000000000000000000000000000000000000000000600052604160045260246000fd5b610c7e82610c35565b810181811067ffffffffffffffff82111715610c9d57610c9c610c46565b5b80604052505050565b6000610cb0610bb4565b9050610cbc8282610c75565b919050565b600067ffffffffffffffff821115610cdc57610cdb610c46565b5b610ce582610c35565b9050602081019050919050565b82818337600083830152505050565b6000610d14610d0f84610cc1565b610ca6565b905082815260208101848484011115610d3057610d2f610c30565b5b610d3b848285610cf2565b509392505050565b600082601f830112610d5857610d57610c2b565b5b8135610d68848260208601610d01565b91505092915050565b60008060408385031215610d8857610d87610bbe565b5b6000610d9685828601610be9565b925050602083013567ffffffffffffffff811115610db757610db6610bc3565b5b610dc385828601610d43565b9150509250929050565b610dd681610bc8565b82525050565b600081519050919050565b600082825260208201905092915050565b60005b83811015610e16578082015181840152602081019050610dfb565b60008484015250505050565b6000610e2d82610ddc565b610e378185610de7565b9350610e47818560208601610df8565b610e5081610c35565b840191505092915050565b6000606083016000830151610e736000860182610dcd565b5060208301518482036020860152610e8b8282610e22565b91505060408301518482036040860152610ea58282610e22565b9150508091505092915050565b60006020820190508181036000830152610ecc8184610e5b565b905092915050565b60008060408385031215610eeb57610eea610bbe565b5b600083013567ffffffffffffffff811115610f0957610f08610bc3565b5b610f1585828601610d43565b925050602083013567ffffffffffffffff811115610f3657610f35610bc3565b5b610f4285828601610d43565b9150509250929050565b600073ffffffffffffffffffffffffffffffffffffffff82169050919050565b6000610f7782610f4c565b9050919050565b610f8781610f6c565b8114610f9257600080fd5b50565b600081359050610fa481610f7e565b92915050565b600060208284031215610fc057610fbf610bbe565b5b6000610fce84828501610f95565b91505092915050565b600081519050919050565b600082825260208201905092915050565b6000819050602082019050919050565b600061100f8383610dcd565b60208301905092915050565b6000602082019050919050565b600061103382610fd7565b61103d8185610fe2565b935061104883610ff3565b8060005b838110156110795781516110608882611003565b975061106b8361101b565b92505060018101905061104c565b5085935050505092915050565b600081519050919050565b600082825260208201905092915050565b6000819050602082019050919050565b60006110be8383610e22565b905092915050565b6000602082019050919050565b60006110de82611086565b6110e88185611091565b9350836020820285016110fa856110a2565b8060005b85811015611136578484038952815161111785826110b2565b9450611122836110c6565b925060208a019950506001810190506110fe565b50829750879550505050505092915050565b600060608201905081810360008301526111628186611028565b9050818103602083015261117681856110d3565b9050818103604083015261118a81846110d3565b9050949350505050565b7f4e487b7100000000000000000000000000000000000000000000000000000000600052603260045260246000fd5b7f4e487b7100000000000000000000000000000000000000000000000000000000600052602260045260246000fd5b6000600282049050600182168061120a57607f821691505b60208210810361121d5761121c6111c3565b5b50919050565b60008190508160005260206000209050919050565b60006020601f8301049050919050565b600082821b905092915050565b6000600883026112857fffffffffffffffffffffffffffffffffffffffffffffffffffffffffffffffff82611248565b61128f8683611248565b95508019841693508086168417925050509392505050565b6000819050919050565b60006112cc6112c76112c284610bc8565b6112a7565b610bc8565b9050919050565b6000819050919050565b6112e6836112b1565b6112fa6112f2826112d3565b848454611255565b825550505050565b600090565b61130f611302565b61131a8184846112dd565b505050565b5b8181101561133e57611333600082611307565b600181019050611320565b5050565b601f8211156113835761135481611223565b61135d84611238565b8101602085101561136c578190505b61138061137885611238565b83018261131f565b50505b505050565b600082821c905092915050565b60006113a660001984600802611388565b1980831691505092915050565b60006113bf8383611395565b9150826002028217905092915050565b6113d882610ddc565b67ffffffffffffffff8111156113f1576113f0610c46565b5b6113fb82546111f2565b611406828285611342565b600060209050601f8311600181146114395760008415611427578287015190505b61143185826113b3565b865550611499565b601f19841661144786611223565b60005b8281101561146f5784890151825560018201915060208501945060208101905061144a565b8683101561148c5784890151611488601f891682611395565b8355505b6001600288020188555050505b505050505050565b6114aa81610bc8565b82525050565b600082825260208201905092915050565b60006114cc82610ddc565b6114d681856114b0565b93506114e6818560208601610df8565b6114ef81610c35565b840191505092915050565b600060408201905061150f60008301856114a1565b818103602083015261152181846114c1565b90509392505050565b600081905092915050565b60008154611542816111f2565b61154c818661152a565b94506001821660008114611567576001811461157c576115af565b60ff19831686528115158202860193506115af565b61158585611223565b60005b838110156115a757815481890152600182019150602081019050611588565b838801955050505b50505092915050565b60006115c48284611535565b915081905092915050565b60006115da82610ddc565b6115e4818561152a565b93506115f4818560208601610df8565b80840191505092915050565b600061160c82846115cf565b915081905092915050565b7f557365726e616d6520616c726561647920657869737421000000000000000000600082015250565b600061164d6017836114b0565b915061165882611617565b602082019050919050565b6000602082019050818103600083015261167c81611640565b9050919050565b7f4e487b7100000000000000000000000000000000000000000000000000000000600052601160045260246000fd5b60006116bd82610bc8565b91507fffffffffffffffffffffffffffffffffffffffffffffffffffffffffffffffff82036116ef576116ee611683565b5b600182019050919050565b7f496e697469616c697a61626c653a20636f6e747261637420697320616c72656160008201527f647920696e697469616c697a6564000000000000000000000000000000000000602082015250565b6000611756602e836114b0565b9150611761826116fa565b604082019050919050565b6000602082019050818103600083015261178581611749565b9050919050565b6000819050919050565b600060ff82169050919050565b60006117be6117b96117b48461178c565b6112a7565b611796565b9050919050565b6117ce816117a3565b82525050565b60006020820190506117e960008301846117c5565b92915050565b7f557365726e616d6520646f6573206e6f74206578697374000000000000000000600082015250565b60006118256017836114b0565b9150611830826117ef565b602082019050919050565b6000602082019050818103600083015261185481611818565b905091905056fea2646970667358221220752ff361f15cf39390a2139e0347090ab697cfd4b18d1cda0387d997096b8b6264736f6c63430008100033",
  "immutableReferences": {},
  "source": "//SPDX-License-Identifier: MIT\r\n\r\n/**\r\nEsta contrato es actualizado en este contrato agrego los eventos y la funcion de eliminar\r\ny ver el total de usuarios en la lista de user\r\n */\r\n\r\npragma solidity ^0.8.11;\r\npragma experimental ABIEncoderV2;\r\n\r\nimport \"@openzeppelin/contracts-upgradeable/proxy/utils/Initializable.sol\";\r\n\r\ncontract UserCrud2 is Initializable{\r\n\r\n   uint256 index;\r\n   address private admin;\r\n\r\n   struct Users{\r\n    uint id;\r\n    string name;\r\n    string gmail;\r\n   }\r\n\r\n   Users[] listuser; // lista de usuarios\r\n   mapping(uint256 => Users) users; //mappin de los usiarios\r\n   \r\n   //declarar eventos aqui\r\n   event UserCreate(uint256,string);\r\n   event UserUpgrated(uint256,string);\r\n\r\n   //funcion inicializadora\r\n   function initialize(address _admin) public initializer{\r\n    admin = _admin;\r\n   }\r\n\r\n   //funcion constructora para dejar inicializado el contrato\r\n   /// @custom:oz-upgrades-unsafe-allow constructor\r\n   constructor() {\r\n    _disableInitializers();\r\n   }\r\n\r\n  //funcion de busqueda dentro de una lista para manipular el array de users\r\n  function Search(uint256 _id) internal view returns(uint256){\r\n    for(uint256 i = 0; i < listuser.length; i++){\r\n         if(listuser[i].id == _id){\r\n            return i;\r\n         }\r\n    }\r\n    revert('Username does not exist');\r\n  }\r\n\r\n  //funcion para ingresar a un usuario\r\n  function createUser(string memory _name, string memory _gmail) public {\r\n    for(uint256 i = 0; i < listuser.length; i++){\r\n        require(keccak256(abi.encodePacked(_gmail)) != keccak256(abi.encodePacked(listuser[i].gmail)), 'Username already exist!');\r\n    }\r\n    listuser.push(Users(index, _name, _gmail));\r\n    users[index] = Users(index, _name, _gmail);\r\n    emit UserCreate(index, _name);\r\n    //incrementamos el index para la proxima llamada de la funcion\r\n    index++;\r\n    }\r\n\r\n   //funcion para actualizar a un usuario\r\n   function upgrateUser(uint256 _id, string memory newname) public {\r\n    uint256 i = Search(_id);\r\n    listuser[i].name = newname; //actualizamos con el nuevo nombre\r\n    users[i].name = newname; // actualizamos con el nuevo nombre \r\n\r\n    emit UserUpgrated(_id, newname);\r\n   } \r\n\r\n   //funcion para ver a un usuario solo el admin la realilza\r\n   function seeUser(uint _id) public view returns(Users memory){\r\n    //require(msg.sender == admin, 'UserCrud:not admin!');\r\n    uint256 i = Search(_id);\r\n    return users[i];\r\n   }\r\n\r\n   //retornamos el array de structura\r\n   function listUser() public view returns(uint[] memory, string[] memory,string[] memory){\r\n     uint256[] memory ids = new uint256[](listuser.length);\r\n     string[] memory names = new string[](listuser.length);\r\n     string[] memory gmails = new string[](listuser.length);\r\n\r\n    for(uint256 _index = 0; _index < listuser.length; _index++){\r\n       ids[_index] = listuser[_index].id;\r\n       names[_index] = listuser[_index].name;\r\n       gmails[_index] = listuser[_index].gmail;\r\n    }\r\n    return (ids, names, gmails);\r\n   }\r\n   //escribir aqui funcion de eliminar a un usuario\r\n   function deleteUser(uint256 _id) public {\r\n    //require(msg.sender == admin,'UserCrud2: its not the admin!');\r\n    uint256 i = Search(_id);\r\n    delete users[i];\r\n    delete listuser[i];\r\n   }\r\n}",
  "sourcePath": "D:\\cursoSolidity\\GuiasTruffleProyectos\\ActualizarCrue\\contracts\\UserCrud2.sol",
  "compiler": {
    "name": "solc",
    "version": "0.8.16+commit.07a7930e.Emscripten.clang"
  },
  "schemaVersion": "3.4.9",
  "updatedAt": "2022-09-05T14:46:53.133Z",
  "networkType": "ethereum",
  "devdoc": {
    "kind": "dev",
    "methods": {
      "constructor": {
        "custom:oz-upgrades-unsafe-allow": "constructor"
      }
    },
    "version": 1
  },
  "userdoc": {
    "kind": "user",
    "methods": {},
    "version": 1
  }
}