{
  "contractName": "UserCrud",
  "abi": [
    {
      "inputs": [],
      "stateMutability": "nonpayable",
      "type": "constructor"
    },
    {
      "anonymous": false,
      "inputs": [
        {
          "indexed": false,
          "internalType": "uint8",
          "name": "version",
          "type": "uint8"
        }
      ],
      "name": "Initialized",
      "type": "event"
    },
    {
      "inputs": [
        {
          "internalType": "address",
          "name": "_admin",
          "type": "address"
        }
      ],
      "name": "initialize",
      "outputs": [],
      "stateMutability": "nonpayable",
      "type": "function"
    },
    {
      "inputs": [
        {
          "internalType": "string",
          "name": "_name",
          "type": "string"
        },
        {
          "internalType": "string",
          "name": "_gmail",
          "type": "string"
        }
      ],
      "name": "createUser",
      "outputs": [],
      "stateMutability": "nonpayable",
      "type": "function"
    },
    {
      "inputs": [
        {
          "internalType": "uint256",
          "name": "_id",
          "type": "uint256"
        },
        {
          "internalType": "string",
          "name": "newname",
          "type": "string"
        }
      ],
      "name": "upgrateUser",
      "outputs": [],
      "stateMutability": "nonpayable",
      "type": "function"
    },
    {
      "inputs": [
        {
          "internalType": "uint256",
          "name": "_id",
          "type": "uint256"
        }
      ],
      "name": "seeUser",
      "outputs": [
        {
          "components": [
            {
              "internalType": "uint256",
              "name": "id",
              "type": "uint256"
            },
            {
              "internalType": "string",
              "name": "name",
              "type": "string"
            },
            {
              "internalType": "string",
              "name": "gmail",
              "type": "string"
            }
          ],
          "internalType": "struct UserCrud.Users",
          "name": "",
          "type": "tuple"
        }
      ],
      "stateMutability": "view",
      "type": "function",
      "constant": true
    }
  ],
  "bytecode": "0x60806040523480156200001157600080fd5b50620000226200002860201b60201c565b620001d3565b600060019054906101000a900460ff16156200007b576040517f08c379a0000000000000000000000000000000000000000000000000000000008152600401620000729062000176565b60405180910390fd5b60ff801660008054906101000a900460ff1660ff161015620000ed5760ff6000806101000a81548160ff021916908360ff1602179055507f7f26b83ff96e1f2b6a682f133852f6798a09c465da95921460cefb384740249860ff604051620000e49190620001b6565b60405180910390a15b565b600082825260208201905092915050565b7f496e697469616c697a61626c653a20636f6e747261637420697320696e69746960008201527f616c697a696e6700000000000000000000000000000000000000000000000000602082015250565b60006200015e602783620000ef565b91506200016b8262000100565b604082019050919050565b6000602082019050818103600083015262000191816200014f565b9050919050565b600060ff82169050919050565b620001b08162000198565b82525050565b6000602082019050620001cd6000830184620001a5565b92915050565b61118680620001e36000396000f3fe608060405234801561001057600080fd5b506004361061004c5760003560e01c80634d3535641461005157806368fb448c1461006d57806387b162b51461009d578063c4d66de8146100b9575b600080fd5b61006b6004803603810190610066919061086e565b6100d5565b005b610087600480360381019061008291906108ca565b61013e565b60405161009491906109dc565b60405180910390f35b6100b760048036038101906100b291906109fe565b6102a7565b005b6100d360048036038101906100ce9190610ad4565b610484565b005b60006100e0836105fc565b905081600382815481106100f7576100f6610b01565b5b906000526020600020906003020160010190816101149190610d3c565b50816004600083815260200190815260200160002060010190816101389190610d3c565b50505050565b6101466106bd565b6000610151836105fc565b9050600460008281526020019081526020016000206040518060600160405290816000820154815260200160018201805461018b90610b5f565b80601f01602080910402602001604051908101604052809291908181526020018280546101b790610b5f565b80156102045780601f106101d957610100808354040283529160200191610204565b820191906000526020600020905b8154815290600101906020018083116101e757829003601f168201915b5050505050815260200160028201805461021d90610b5f565b80601f016020809104026020016040519081016040528092919081815260200182805461024990610b5f565b80156102965780601f1061026b57610100808354040283529160200191610296565b820191906000526020600020905b81548152906001019060200180831161027957829003601f168201915b505050505081525050915050919050565b60005b60038054905081101561037c57600381815481106102cb576102ca610b01565b5b90600052602060002090600302016002016040516020016102ec9190610e9c565b60405160208183030381529060405280519060200120826040516020016103139190610ee4565b6040516020818303038152906040528051906020012003610369576040517f08c379a000000000000000000000000000000000000000000000000000000000815260040161036090610f58565b60405180910390fd5b808061037490610fa7565b9150506102aa565b506003604051806060016040528060015481526020018481526020018381525090806001815401808255809150506001900390600052602060002090600302016000909190919091506000820151816000015560208201518160010190816103e49190610d3c565b5060408201518160020190816103fa9190610d3c565b505050604051806060016040528060015481526020018381526020018281525060046000600154815260200190815260200160002060008201518160000155602082015181600101908161044e9190610d3c565b5060408201518160020190816104649190610d3c565b509050506001600081548092919061047b90610fa7565b91905055505050565b60008060019054906101000a900460ff161590508080156104b55750600160008054906101000a900460ff1660ff16105b806104e257506104c43061069a565b1580156104e15750600160008054906101000a900460ff1660ff16145b5b610521576040517f08c379a000000000000000000000000000000000000000000000000000000000815260040161051890611061565b60405180910390fd5b60016000806101000a81548160ff021916908360ff160217905550801561055e576001600060016101000a81548160ff0219169083151502179055505b81600260006101000a81548173ffffffffffffffffffffffffffffffffffffffff021916908373ffffffffffffffffffffffffffffffffffffffff16021790555080156105f85760008060016101000a81548160ff0219169083151502179055507f7f26b83ff96e1f2b6a682f133852f6798a09c465da95921460cefb384740249860016040516105ef91906110c9565b60405180910390a15b5050565b600080600090505b60038054905081101561065957826003828154811061062657610625610b01565b5b906000526020600020906003020160000154036106465780915050610695565b808061065190610fa7565b915050610604565b506040517f08c379a000000000000000000000000000000000000000000000000000000000815260040161068c90611130565b60405180910390fd5b919050565b6000808273ffffffffffffffffffffffffffffffffffffffff163b119050919050565b60405180606001604052806000815260200160608152602001606081525090565b6000604051905090565b600080fd5b600080fd5b6000819050919050565b610705816106f2565b811461071057600080fd5b50565b600081359050610722816106fc565b92915050565b600080fd5b600080fd5b6000601f19601f8301169050919050565b7f4e487b7100000000000000000000000000000000000000000000000000000000600052604160045260246000fd5b61077b82610732565b810181811067ffffffffffffffff8211171561079a57610799610743565b5b80604052505050565b60006107ad6106de565b90506107b98282610772565b919050565b600067ffffffffffffffff8211156107d9576107d8610743565b5b6107e282610732565b9050602081019050919050565b82818337600083830152505050565b600061081161080c846107be565b6107a3565b90508281526020810184848401111561082d5761082c61072d565b5b6108388482856107ef565b509392505050565b600082601f83011261085557610854610728565b5b81356108658482602086016107fe565b91505092915050565b60008060408385031215610885576108846106e8565b5b600061089385828601610713565b925050602083013567ffffffffffffffff8111156108b4576108b36106ed565b5b6108c085828601610840565b9150509250929050565b6000602082840312156108e0576108df6106e8565b5b60006108ee84828501610713565b91505092915050565b610900816106f2565b82525050565b600081519050919050565b600082825260208201905092915050565b60005b83811015610940578082015181840152602081019050610925565b60008484015250505050565b600061095782610906565b6109618185610911565b9350610971818560208601610922565b61097a81610732565b840191505092915050565b600060608301600083015161099d60008601826108f7565b50602083015184820360208601526109b5828261094c565b915050604083015184820360408601526109cf828261094c565b9150508091505092915050565b600060208201905081810360008301526109f68184610985565b905092915050565b60008060408385031215610a1557610a146106e8565b5b600083013567ffffffffffffffff811115610a3357610a326106ed565b5b610a3f85828601610840565b925050602083013567ffffffffffffffff811115610a6057610a5f6106ed565b5b610a6c85828601610840565b9150509250929050565b600073ffffffffffffffffffffffffffffffffffffffff82169050919050565b6000610aa182610a76565b9050919050565b610ab181610a96565b8114610abc57600080fd5b50565b600081359050610ace81610aa8565b92915050565b600060208284031215610aea57610ae96106e8565b5b6000610af884828501610abf565b91505092915050565b7f4e487b7100000000000000000000000000000000000000000000000000000000600052603260045260246000fd5b7f4e487b7100000000000000000000000000000000000000000000000000000000600052602260045260246000fd5b60006002820490506001821680610b7757607f821691505b602082108103610b8a57610b89610b30565b5b50919050565b60008190508160005260206000209050919050565b60006020601f8301049050919050565b600082821b905092915050565b600060088302610bf27fffffffffffffffffffffffffffffffffffffffffffffffffffffffffffffffff82610bb5565b610bfc8683610bb5565b95508019841693508086168417925050509392505050565b6000819050919050565b6000610c39610c34610c2f846106f2565b610c14565b6106f2565b9050919050565b6000819050919050565b610c5383610c1e565b610c67610c5f82610c40565b848454610bc2565b825550505050565b600090565b610c7c610c6f565b610c87818484610c4a565b505050565b5b81811015610cab57610ca0600082610c74565b600181019050610c8d565b5050565b601f821115610cf057610cc181610b90565b610cca84610ba5565b81016020851015610cd9578190505b610ced610ce585610ba5565b830182610c8c565b50505b505050565b600082821c905092915050565b6000610d1360001984600802610cf5565b1980831691505092915050565b6000610d2c8383610d02565b9150826002028217905092915050565b610d4582610906565b67ffffffffffffffff811115610d5e57610d5d610743565b5b610d688254610b5f565b610d73828285610caf565b600060209050601f831160018114610da65760008415610d94578287015190505b610d9e8582610d20565b865550610e06565b601f198416610db486610b90565b60005b82811015610ddc57848901518255600182019150602085019450602081019050610db7565b86831015610df95784890151610df5601f891682610d02565b8355505b6001600288020188555050505b505050505050565b600081905092915050565b60008154610e2681610b5f565b610e308186610e0e565b94506001821660008114610e4b5760018114610e6057610e93565b60ff1983168652811515820286019350610e93565b610e6985610b90565b60005b83811015610e8b57815481890152600182019150602081019050610e6c565b838801955050505b50505092915050565b6000610ea88284610e19565b915081905092915050565b6000610ebe82610906565b610ec88185610e0e565b9350610ed8818560208601610922565b80840191505092915050565b6000610ef08284610eb3565b915081905092915050565b600082825260208201905092915050565b7f557365726e616d6520616c726561647920657869737421000000000000000000600082015250565b6000610f42601783610efb565b9150610f4d82610f0c565b602082019050919050565b60006020820190508181036000830152610f7181610f35565b9050919050565b7f4e487b7100000000000000000000000000000000000000000000000000000000600052601160045260246000fd5b6000610fb2826106f2565b91507fffffffffffffffffffffffffffffffffffffffffffffffffffffffffffffffff8203610fe457610fe3610f78565b5b600182019050919050565b7f496e697469616c697a61626c653a20636f6e747261637420697320616c72656160008201527f647920696e697469616c697a6564000000000000000000000000000000000000602082015250565b600061104b602e83610efb565b915061105682610fef565b604082019050919050565b6000602082019050818103600083015261107a8161103e565b9050919050565b6000819050919050565b600060ff82169050919050565b60006110b36110ae6110a984611081565b610c14565b61108b565b9050919050565b6110c381611098565b82525050565b60006020820190506110de60008301846110ba565b92915050565b7f557365726e616d6520646f6573206e6f74206578697374000000000000000000600082015250565b600061111a601783610efb565b9150611125826110e4565b602082019050919050565b600060208201905081810360008301526111498161110d565b905091905056fea264697066735822122054e22113ed0130955a9df5e51a51e45374c919f1d530339935a8cf11fa657c9864736f6c63430008100033",
  "immutableReferences": {},
  "source": "//SPDX-License-Identifier: MIT\r\n\r\npragma solidity ^0.8.11;\r\npragma experimental ABIEncoderV2;\r\n\r\nimport \"@openzeppelin/contracts-upgradeable/proxy/utils/Initializable.sol\";\r\n\r\ncontract UserCrud is Initializable{\r\n\r\n   uint256 index;\r\n   address private admin;\r\n\r\n   struct Users{\r\n    uint id;\r\n    string name;\r\n    string gmail;\r\n   }\r\n\r\n   Users[] listuser; // lista de usuarios\r\n   mapping(uint256 => Users) users; //mappin de los usiarios\r\n   \r\n   //declarar eventos aqui\r\n\r\n   //funcion inicializadora\r\n   function initialize(address _admin) public initializer{\r\n    admin = _admin;\r\n   }\r\n\r\n   //funcion constructora para dejar inicializado el contrato\r\n   /// @custom:oz-upgrades-unsafe-allow constructor\r\n   constructor() {\r\n    _disableInitializers();\r\n   }\r\n\r\n  //funcion de busqueda dentro de una lista para manipular el array de users\r\n  function Search(uint256 _id) internal view returns(uint256){\r\n    for(uint256 i = 0; i < listuser.length; i++){\r\n         if(listuser[i].id == _id){\r\n            return i;\r\n         }\r\n    }\r\n    revert('Username does not exist');\r\n  }\r\n\r\n  //funcion para ingresar a un usuario\r\n  function createUser(string memory _name, string memory _gmail) public {\r\n    \r\n    for(uint256 i = 0; i < listuser.length; i++){\r\n        require(keccak256(abi.encodePacked(_gmail)) != keccak256(abi.encodePacked(listuser[i].gmail)), 'Username already exist!');\r\n    }\r\n    listuser.push(Users(index, _name, _gmail));\r\n    users[index] = Users(index, _name, _gmail);\r\n\r\n    //incrementamos el index aqui\r\n    index++;\r\n    }\r\n\r\n   //funcion para actualizar a un usuario\r\n   function upgrateUser(uint256 _id, string memory newname) public {\r\n    uint256 i = Search(_id);\r\n    listuser[i].name = newname; //actualizamos con el nuevo nombre\r\n    users[i].name = newname; // actualizamos con el nuevo nombre \r\n   } \r\n\r\n   //funcion para ver a un usuario solo el admin la realilza\r\n   function seeUser(uint _id) public view returns(Users memory){\r\n   // require(msg.sender == admin, 'UserCrud:not admin!');\r\n    uint256 i = Search(_id);\r\n    return users[i];\r\n   }\r\n\r\n   //escribir la lista aqui de los usuarios\r\n   //escribir aqui funcion de eliminar a un usuario\r\n}",
  "sourcePath": "D:\\cursoSolidity\\GuiasTruffleProyectos\\ActualizarCrue\\contracts\\UserCrud.sol",
  "compiler": {
    "name": "solc",
    "version": "0.8.16+commit.07a7930e.Emscripten.clang"
  },
  "schemaVersion": "3.4.9",
  "updatedAt": "2022-09-05T14:46:53.125Z",
  "networkType": "ethereum",
  "devdoc": {
    "kind": "dev",
    "methods": {
      "constructor": {
        "custom:oz-upgrades-unsafe-allow": "constructor"
      }
    },
    "version": 1
  },
  "userdoc": {
    "kind": "user",
    "methods": {},
    "version": 1
  }
}